:10000000582400201901000015010000150100000E
:1000100000000000000000000000000000000000E0
:1000200000000000000000000000000015010000BA
:100030000000000000000000150100001501000094
:100040001501000015010000150100001501000058
:100050001501000015010000150100001501000048
:100060001501000015010000150100001501000038
:100070001501000015010000150100002503000016
:100080001501000015010000150100001501000018
:100090001501000000000000000000001501000034
:1000A00015010000150100001501000015010000F8
:1000B0000000000010B5064C2378002B07D1054B3B
:1000C000002B02D0044800E000BF0123237010BDC4
:1000D0003804002000000000C4140000084B10B5D4
:1000E000002B03D00749084800E000BF0748036819
:1000F000002B00D110BD064B002BFBD09847F9E731
:10010000000000003C040020C4140000C4140000DF
:1001100000000000FEE7C04670B52E4B2E4A9A4202
:1001200003D02E4B2B4A9A4204D32D4B2D4A9A4290
:1001300010D31EE02C4A294B03339B1A9B08013332
:100140009B000022234824498C58845004329A4250
:10015000FAD1EAE7254A224B03339B1A9B08013365
:100160009B0000221F4800211418216004329A428B
:10017000FAD11F4AFF211F4B8B439360FD39902317
:100180005B001D4AD1501D48C3780324A3430222BB
:100190001343C370C3780C26B34308210B43C370C9
:1001A000174B987B3025A8430500202028439873DF
:1001B000987BB04301439973997BA1430A439A7397
:1001C000104A516880230B4353600F4B98470F4BE5
:1001D0009847FEE700000020C41400003804002007
:1001E0005404002038040020040000203C040020B7
:1001F00000ED00E0000000000070004100500041F0
:100200000048004100400041E112000011020000DE
:1002100010B580229202364B9A6080225200354BF4
:100220001A62354A11680F230B4052681002334A94
:1002300002401A43324882604278D209FCD1C0227F
:10024000920213432E4A53605378DB09FCD1090212
:10025000F0231B010B402B4A1343294A53802A4A9F
:10026000136802218B43136013009A68002AFCD1A3
:10027000254B9A6A25490A439A622549C320800082
:100280000A581202120A0A50802212020A60DA6B1D
:100290005207520FD86B02211143072290430200EC
:1002A0000A43DA639A68002AFCD1134B9868164B0C
:1002B00018649A68002AFCD1164B98470022164B06
:1002C000164CA047164B98470F4B58649A68002A63
:1002D000FCD10D4B5A639A68002AFCD10A4A116876
:1002E00002230B43136013009A68002AFCD1FEE737
:1002F00000440041000400400000002000FFFF0017
:10030000000C00401A4000000020004201000100E3
:1003100000E100E0890F00000000E03F81030000E1
:100320004503000080229202034BDA61034AD36A3C
:1003300003490B43D3627047004400410020004250
:100340000100010070B500220C4B04000D0000F00C
:1003500091FE002804D12000290000F0DFFD70BDCF
:10036000064B00222000290000F084FA00F0D6FDA0
:1003700080231B069C466044F1E7C0460000E04134
:10038000F0B55F4656464D464446F0B40D039946D7
:100390004E002B0B87B00700924680469B46760D99
:1003A000CC0F002E69D06D4B9E4235D05B4680222B
:1003B000DD001204430F13432B439B46C3009846B2
:1003C000674B00279C460023664401934A46150369
:1003D0005000D20F53462D0B400D914600D176E0D0
:1003E0005E4A90426CD080225B0F120413435C4A39
:1003F000ED0094461D4353460022DB00604449460D
:100400003618701C6140029017430F2F00D9AFE0DF
:100410005448BF00C759BF465B461F4300D088E021
:1004200000239B469846023308270193CEE74946AE
:10043000022A6AD0032A00D109E2012A00D0BBE1D6
:1004400011400022002300259046CCB200212D034C
:100450000A0D12052D0B1543434A1B0515401D437C
:100460006D00E4076D0825434046290007B03CBCF9
:1004700090469946A246AB46F0BD034352D05B4638
:10048000002B00D18AE1584600F0FEFD03000B3B33
:100490001C2B00DD7BE11D22D31A3A0001005D46D2
:1004A000DA4008398D4013008F402B439B46B846F5
:1004B0002E4B00279C46002360444642019385E76B
:1004C00052462A432CD100250023022297E75246A8
:1004D0002A4321D0002D00D154E1280000F0D4FDA2
:1004E00003000B3B1C2B00DD46E11D21CB1A5146BE
:1004F0000200D9405346083A954093400D431B4AA9
:10050000944660444042002279E7012400220C40D6
:10051000124B0025904699E70025002301226EE743
:1005200003226CE700239B4698460133042701937E
:100530004CE703230C27019348E7002380259846C6
:1005400000242D03054B81E75D464346019A6FE782
:100550005D4643462100019A6AE7C046FF07000056
:1005600001FCFFFF58140000FFFF0F80F3030000A1
:100570004246120C91461A0C9446424617044A46CB
:100580001B041B0C5A43604690464A4642431000E7
:10059000039262461C003F0C7A437C434244019222
:1005A000220C9246019A5244904506D982468020F8
:1005B00040028046C24450460390100C04904846C6
:1005C0002404240C1204121905922A0C2D042D0C5B
:1005D00068432C00824648467C4350438146200CA9
:1005E0008046574357444744BA4503D980204002C8
:1005F0008046C144380C3F04B84648442404240CC7
:1006000001900498A044404404905846000C814650
:1006100058460404200C8246070048465F434C4677
:100620004343604660436446834650464443380C27
:100630008446E4186444A34203D980235B029C46A9
:10064000E34448463F04230C3F0C2404E419574676
:1006500068436F4384464D46504655434243380CE9
:10066000814662444A445B44944503D98020400259
:100670008446654403983F04834604983F0C8446AF
:10068000E344C345804140428246100484460198B9
:10069000674484466744A344BC46A345A4419946A5
:1006A000D44464428742BF41D4458041E144A046DE
:1006B00099459B417F424042C8440743120CBA18F7
:1006C000A045A4415F423B0064422343D718434600
:1006D0007D19DB0D6D021D435B465A02059B1A43D3
:1006E000531E9A415B46DB0D1A4343465B0213439C
:1006F000EA0107D501225C0813402343EA07029E62
:1007000013436D08574AB218002A4BDD580709D029
:100710000F201840042805D0181D98429B415B42C9
:10072000ED180300E80104D54F4A15408022D2009D
:10073000B2184E48824200DDE7E60124DB08680774
:1007400018436D02530580462D0B5B0D0C407DE672
:10075000802259461203114208D0154206D1154392
:100760002D0398462D0B4C46414B6FE65D461543D5
:100770002D032D0B3E4B69E603005546283B9D405B
:100780000023BCE6504600F07FFC2030A8E60300C2
:10079000283B9F400023BB46984689E600F074FC46
:1007A000203073E60124A61A382E07DD00220C4003
:1007B00000230025904649E6029EA3E71F2E20DC79
:1007C00020222C001800921BF040944093400443D8
:1007D000581E83411C43F540630709D00F23234073
:1007E000042B05D023001C1D9C4292415242AD189F
:1007F0002B021FD5012400220C4001230025904626
:1008000024E61F202C004042821AD440202E1CD007
:100810004022961BB5402B43581E8341072023439B
:1008200018400025002809D00F2200251A401C007E
:10083000042AD8D1230068076D022D0B0124DB08A0
:10084000034398460C40002300E60025E3E780229E
:100850000124120315432D0398462D0B0C40044B25
:10086000F4E5C046FF030000FFFFFFFEFE070000A7
:10087000FF070000F0B557464E464546E0B40E006F
:100880001100F20F9246C500420F1803370374009F
:10089000400A4E0F7F0A3043CF4E17435A00640D73
:1008A000520DDB0FC900B24200D1E5E001267340D2
:1008B000A61AB446534500D1AFE0002E00DC0DE18E
:1008C000002A3AD103000B4300D0E4E06B0709D0C3
:1008D0000F232B40042B05D02B1DAB42AD416D42A5
:1008E0007F191D003B0200D488E0BB4B01349C42C1
:1008F00000D110E13A00B94B51461A40012350078C
:10090000ED08520264050543120B640D0B400021F3
:10091000280012030D0D120B64052D051543620806
:10092000AF4CDB072C401443640064081C432100D7
:100930001CBC90469946A246F0BDA74B9C42C5D030
:1009400080231B0418436346382B00DDFDE01F2B7A
:1009500000DD30E1624620239B1A02009A40664681
:1009600090460A009940F24046464B1E9941324358
:10097000114363460200DA40691A8D429B410D0023
:10098000BA1A5B42D71A3B0235D57A02530A984607
:100990004346002B00D1C4E0404600F075FB030045
:1009A000083B1F2B00DDC5E020222900D21A474654
:1009B000D1409F400A009D403A439C4200DDC0E088
:1009C0001C1B631C1F2B00DDE4E020211400280009
:1009D000C91AD8408C408D400443DA40681E8541D6
:1009E00017002543002471E7424663461A4300D1AD
:1009F0004CE2674645466B0700D069E70123514644
:100A00007807ED08FA080B40054373498C4238D04B
:100A100012036405120B640D79E7002E00DC9AE0E6
:100A2000002A47D06C4A944200D14FE7802212043A
:100A300010436246382A00DC08E10143481E814128
:100A40000022C9B24919D219A942BF410D007F4203
:100A5000BF183A0200D442E15F4A0134944200D107
:100A60004EE101205D4A69083A4028400843D50715
:100A7000054357089A4629E706000E4300D017E7BA
:100A800014E72900114300D1F9E1802109030A4349
:100A90001203120B3BE701235B429846C4446346B2
:100AA000002B72D1691A8D429B413F1A5B42FF1A9B
:100AB0000D0068E702000A4300D107E70122524215
:100AC0009046C4446246002A00D0E6E06918A94274
:100AD000B6413F187642F7190D00BAE7002E00D054
:100AE00080E0621C5205520D012A00DCF9E06A1A0E
:100AF00091464D45B6413A1A7642921B90461202F3
:100B000000D499E04D1BA9428941C71B49427A1A7A
:100B100090469A463CE752460123002513400022A6
:100B2000F5E6280000F0B0FA20300300083B1F2B48
:100B300000DC39E72A002838824000259C4200DC8E
:100B40003EE7264FE41A1740C0E60143481E8141A4
:100B50000022C9B210E7002E00D0F1E0621C9446DA
:100B60005205520D012A00DCA0E01B4A944500D139
:100B7000C5E06918A94292413F185242D21949086A
:100B8000D5070D4357086446A0E6134B9C4200D09E
:100B9000D9E69BE611001F3CE1400C00202B00D160
:100BA00080E04021CB1A9A4015436A1E95410027E8
:100BB000254300241FE763460200203BDA406346DA
:100BC000202B71D0402366469B1B98400143481E52
:100BD000814111430022CFE6FF070000FFFF7FFFA6
:100BE000FFFF0F80002C48D0CA4CA24200D1A2E0E7
:100BF0007442A1468024240427434C46382C00DD4F
:100C0000DBE01F2C00DD44E14E462024A41B3E0007
:100C1000A640A246B0464C462E00E640B4464646A4
:100C2000644626435446A5406C1EA54134002C431F
:100C30004D46EF400D1B28E04A4643464D461A43B9
:100C400000D0A5E6002300240025DEE61F2A5ADC9A
:100C500066462022921B060096409146B0466246A8
:100C60000E00D640424616434A4691404A1E9141E4
:100C7000020060463143C240E4E63C002C435AD0B7
:100C8000F443A146002C52D14D1BA9428941C71BF8
:100C900049427F1A14009A4675E69E4A944200D053
:100CA000C7E613E600227FE700208FE7002C00D084
:100CB000C8E03B002B4300D10FE103000B4300D100
:100CC00004E66918A9429B413F185B42DF193B02C9
:100CD00000D41AE1904B0D001F406446F6E59A4699
:100CE00089E63A002A43002C5CD1002A75D1020023
:100CF0000A4300D1CAE007000D009A46E6E56446C3
:100D00000022002581E662460600203AD64062466F
:100D1000B046202A00D1B7E040226646921B9040A0
:100D200001434246481E8141114300228AE6794C24
:100D3000A24200D061E707000D0014009A46C5E505
:100D4000002C41D13C002C4378D0F443A146002C28
:100D500020D0704CA24271D04C46382C00DDB2E05D
:100D60001F2C00DDBCE02026341BA2463C0056466A
:100D7000B4404E46A0462C00F440A4464446664685
:100D80003443A4465446A54064466E1EB5412543EF
:100D90004C46E7406D188D4289413F184942CF19B2
:100DA000140056E6002A2FD102000A4300D184E045
:100DB00007000D009A46574C88E53D436F1EBD4124
:100DC000ECB200270D1B60E7524CA24236D07442B1
:100DD00080263604A1463743BEE702000A4300D10D
:100DE00074E56A1A90464545B6413A1A7642921B16
:100DF0009446120200D4F7E54D1BA9428941C71B56
:100E000049427F1A9A4661E502000A433AD0ED084A
:100E10007C072C438025FA082D032A4208D0C708F6
:100E20002F4205D145072C003A009A46C9080C43C9
:100E3000670FD200E5001743364C47E507000D0069
:100E4000140043E53A002A4343D002000A4319D074
:100E5000ED087C072C438025FA082D032A4207D091
:100E6000C6082E4204D147073C003200C9080C4393
:100E7000D700620FE50017439A46264C26E500226C
:100E8000002544E5234C21E5002049E70023002507
:100E9000BBE54C463E00203CE6404C46B446202C88
:100EA00031D040244E46A61BB7403D436C1EA541A1
:100EB00064462C4300270D1BE7E680220023120323
:100EC000144C0025A1E53D436F1EBD410027EDB246
:100ED00060E707000D000F4CF8E407000D00F5E493
:100EE0004E463C00203EF440A0464C46202C0ED0FE
:100EF00040244E46A41BA7403D436F1EBD414446BF
:100F00000027254346E70027CFE70D0073E50027BC
:100F1000F2E7C046FF070000FFFF7FFF0B0330B57D
:100F2000134D1A0B4B005B0DC90F0024AB4211DDB2
:100F3000104CA34210DC8024640322430E4CE41ABC
:100F40001F2C0CDD0D48C31ADA4013005C42002947
:100F500000D11C00200030BD094BCC18FAE7E0405E
:100F6000084CA44663449A4013000343EEE7C0468E
:100F7000FE0300001D040000330400001304000001
:100F8000FFFFFF7FEDFBFFFF70B5002830D0C317D8
:100F9000C4185C40C50F200000F076F8174B184AC3
:100FA0001B1AD21A1F2A18DD164AD21A94400022A0
:100FB00024035B05240B5B0D0021100024030A0DA4
:100FC0001205240B1443104A1B0514401C436400F3
:100FD000ED0764082C43210070BD210091400A00F8
:100FE0000B21081AC4405B052403240B5B0DE3E7C7
:100FF0000025002300240022DEE7C0461E04000076
:101000003304000013040000FFFF0F808446101C0F
:1010100062468C46191C634600E0C0461FB500F0CE
:10102000F5F8002801D40021C8421FBD10B500F01A
:1010300049F84042013010BD10B500F0E7F8002833
:1010400001DB002010BD012010BDC04610B500F02E
:10105000DDF8002801DD002010BD012010BDC046D4
:1010600010B500F06FF8002801DC002010BD012051
:1010700010BDC04610B500F065F8002801DA002068
:1010800010BD012010BDC0461C2101231B04984245
:1010900001D3000C10391B0A984201D3000A083909
:1010A0001B09984201D30009043902A2105C4018C0
:1010B0007047C04604030202010101010000000064
:1010C00000000000F0B55F4656464D464446F0B479
:1010D0001F035C00DB0F9A46194B0E034D00C90F2E
:1010E0008046360B6D0D8B4691463F0B640D9D423D
:1010F00019D0134B9C421BD00123A54206D01800E7
:101100003CBC90469946A246AB46F0BDBE42F6D1E5
:10111000C845F4D1D34510D0002DF0D130430300A1
:101120005A1E9341EBE7310001230143E7D1E0E789
:101130003A430123002AE2D1DEE70023DFE7C0467D
:10114000FF070000F0B55F46444656464D46F0B4F2
:101150001F033C0B2C4F0E034D00A3465C0084463E
:10116000360B6D0DC90F9046640DDB0FBD422BD0C1
:10117000254FBC422ED0002D0ED1304307008146B2
:1011800078427841002C17D15F463A4314D14B4640
:101190000020002B0AD006E0002C02D15846024362
:1011A00001D099421AD00123484218433CBC9046D2
:1011B0009946A246AB46F0BD0028F2D058425841AD
:1011C000012240421043F1E737000743D0D002200C
:1011D0004042EBE75F461743CDD0F8E7A542E2DC9B
:1011E00005DB5E45DFD808D000205E45DED24842F0
:1011F0004841012340421843D8E7C445D3D80020D2
:10120000C445F4D3D2E7C046FF070000F0B55F46FF
:101210004D4644465646F0B41C03240BA4462F4CBE
:101220000F034D005E00C90F80463F0B6D0D8B46CE
:101230009146760DDB0FA54220D0284CA64222D045
:10124000002D12D1384344424441002E20D0002CBE
:101250000DD05C42634101245B421C4320003CBC36
:1012600090469946A246AB46F0BD002E17D05B458E
:1012700019D05B465C4201231C43EFE7390002248E
:101280000143EBD1D9E7614602241143E6D1D7E708
:1012900061460A43DBD100240028DFD0E9E761463C
:1012A0000A43E4D1E5E7B54203DD01225C42144381
:1012B000D4E7B542CDDB6745DBD809D000246745CC
:1012C000CCD259464C426141012449420C43C5E706
:1012D000C845CED80024C845F3D3BFE7FF070000B8
:1012E00070B50D4E0D4D0024AD1BAD1005D0A30003
:1012F000F35801349847A542F9D100F0D1F8084ECF
:10130000084D0024AD1BAD1005D0A300F3580134E7
:101310009847A542F9D170BDAC140000AC14000090
:10132000AC140000B4140000034B10B5002B02D025
:10133000024800F005F810BD000000005113000045
:1013400010B5010000230022002000F01BF810BDA2
:1013500070B5094B094CE41AA41009D0084AA51825
:10136000AD00ED182B68013C9847043D002CF9D1E5
:1013700000F0A0F870BDC046C0140000C414000006
:10138000FFFFFF3FF8B544465F4656464D469B4635
:101390002F4BF0B41C68A4235B000500E0580E003E
:1013A000904600284BD043681F2B0DDC5C1C002DA1
:1013B00021D102339B0044601E5000203CBC90466B
:1013C0009946A246AB46F8BD224B002B3CD0C82024
:1013D000400000E000BF002836D0A42200235200C5
:1013E000A15843600160A0504032835004328350C2
:1013F0000124002DDDD09A00914681444246882187
:101400004F467A50C4225200904680444246873963
:10141000994012688A460A439446424661461160E2
:10142000842249465F4652008F50022DC1D10200EE
:1014300055468D32FF3211680D431560B9E7200023
:101440004D30FF30E050AEE701204042B6E7C046E5
:101450009C14000000000000700500003004000033
:10146000300400002E04000048050000480500007C
:101470003A0500002E040000480500003A0500006F
:10148000480500002E040000500500005005000033
:10149000500500005007000043000000100000202D
:1014A000F8B5C046F8BC08BC9E467047291300003A
:1014B000DD000000F8B5C046F8BC08BC9E46704789
:0414C000B500000073
:1014C400040000000100000005000000000000000E
:1014D40000000000FC02002064030020CC03002074
:1014E40000000000000000000000000000000000F8
:1014F40000000000000000000000000000000000E8
:10150400000000009814000000000000000000002B
:1015140000000000000000000000000000000000C7
:1015240000000000000000000000000000000000B7
:1015340000000000000000000000000000000000A7
:101544000000000000000000000000000000000097
:101554000000000000000000000000000000000087
:101564000000000000000000000000000000000077
:101574000000000000000000010000000000000066
:101584000E33CDAB34126DE6ECDE05000B0000002B
:101594000000000000000000000000000000000047
:1015A4000000000000000000000000000000000037
:1015B4000000000000000000000000000000000027
:1015C4000000000000000000000000000000000017
:00000001FF
