S011000050574D5F32304269742E737265633F
S11300006024002019010000150100001501000002
S113001000000000000000000000000000000000DC
S113002000000000000000000000000015010000B6
S11300300000000000000000150100001501000090
S11300401501000015010000150100001501000054
S11300501501000015010000150100001501000044
S11300601501000015010000150100001501000034
S11300701501000015010000150100004D030000EA
S11300801501000015010000150100001501000014
S11300901501000000000000000000001501000030
S11300A015010000150100001501000015010000F4
S11300B00000000010B5064C2378002B07D1054B37
S11300C0002B02D0044800E000BF0123237010BDC0
S11300D0380400200000000010050000084B10B593
S11300E0002B03D00749084800E000BF0748036815
S11300F0002B00D110BD064B002BFBD09847F9E72D
S1130100000000003C040020100500001005000061
S113011000000000FEE7C04670B52E4B2E4A9A42FE
S113012003D02E4B2B4A9A4204D32D4B2D4A9A428C
S113013010D31EE02C4A294B03339B1A9B0801332E
S11301409B000022234824498C58845004329A424C
S1130150FAD1EAE7254A224B03339B1A9B08013361
S11301609B0000221F4800211418216004329A4287
S1130170FAD11F4AFF211F4B8B439360FD39902313
S11301805B001D4AD1501D48C3780324A3430222B7
S11301901343C370C3780C26B34308210B43C370C5
S11301A0174B987B3025A8430500202028439873DB
S11301B0987BB04301439973997BA1430A439A7393
S11301C0104A516880230B4353600F4B98470F4BE1
S11301D09847FEE7000000201005000038040020C6
S11301E05C04002038040020040000203C040020AB
S11301F000ED00E0000000000070004100500041EC
S113020000480041004000416D0300004902000025
S113021000220B4B5A711A0093685B07FCD48022AE
S1130220074B5A711A0093685B07FCD4044A93681D
S1130230DB06FCD4024B5A6B024B1A607047C04673
S1130240002000425804002010B5354A136880216C
S113025089020B431360334B4821585C012202434B
S11302605A544439342299542F4A136AFC310B43AB
S113027013622E4B1B681A02F0231B0113402C4AF5
S113028013432C4A53805378DB09FCD12A4A136860
S113029002218B43136013009A689207FCD4264A08
S11302A0137901218B43137113009A685207FCD40C
S11302B0214AD16B02230B43D36313009A6852067D
S11302C0FCD41E4B1B681C4A136491680906FCD4B9
S11302D0194A536413009A68D205FCD4184AC321FE
S11302E0890053581B021B0A535080231B021360BE
S11302F0114BDA6A13490A43DA62996200225A639B
S11303009A68D206FCD40C4A1368812149000B4335
S1130310136013009A689207FCD40B4CA047FDE7C6
S113032008440041004400410004004054040020FB
S11303301A400000000C0040002000420000002091
S113034000E100E00100010011020000802292029D
S1130350034B1A60034AD36A03490B43D3627047C1
S11303601C440041002000420100010070B50D4E04
S11303700D4D0024AD1BAD1005D0A300F35801347E
S11303809847A542F9D100F0B1F8084E084D002471
S1130390AD1BAD1005D0A300F35801349847A54216
S11303A0F9D170BDF8040000F8040000F80400005E
S11303B000050000034B10B5002B02D0024800F0EA
S11303C005F810BD00000000DD03000010B50100B9
S11303D000230022002000F01BF810BD70B5094B6B
S11303E0094CE41AA41009D0084AA518AD00ED1868
S11303F02B68013C9847043D002CF9D100F080F8AB
S113040070BDC0460C05000010050000FFFFFF3F53
S1130410F8B544465F4656464D469B462F4BF0B4CE
S11304201C68A4235B000500E0580E0090460028D9
S11304304BD043681F2B0DDC5C1C002D21D10233F3
S11304409B0044601E5000203CBC90469946A24646
S1130450AB46F8BD224B002B3CD0C820400000E046
S113046000BF002836D0A42200235200A1584360C4
S11304700160A05040328350043283500124002D87
S1130480DDD09A0091468144424688214F467A50F5
S1130490C4225200904680444246873999401268EB
S11304A08A460A439446424661461160842249467C
S11304B05F4652008F50022DC1D1020055468D3245
S11304C0FF3211680D431560B9E720004D30FF304D
S11304D0E050AEE701204042B6E7C046E804000021
S11304E0000000004300000010000020F8B5C046E2
S11304F0F8BC08BC9E467047B5030000DD00000050
S1130500F8B5C046F8BC08BC9E467047B50000006C
S1130510D8B805001400000001000000000000002D
S113052000000000FC02002064030020CC03002033
S113053000000000000000000000000000000000B7
S113054000000000000000000000000000000000A7
S113055000000000E40400000000000000000000AF
S11305600000000000000000000000000000000087
S11305700000000000000000000000000000000077
S11305800000000000000000000000000000000067
S11305900000000000000000000000000000000057
S11305A00000000000000000000000000000000047
S11305B00000000000000000000000000000000037
S11305C00000000000000000010000000000000026
S11305D00E33CDAB34126DE6ECDE05000B000000EB
S11305E00000000000000000000000000000000007
S11305F000000000000000000000000000000000F7
S113060000000000000000000000000000000000E6
S113061000000000000000000000000000000000D6
S9030000FC
