:100000005024002019010000150100001501000016
:1000100000000000000000000000000000000000E0
:1000200000000000000000000000000015010000BA
:100030000000000000000000150100001501000094
:100040001501000015010000150100001501000058
:100050001501000015010000150100001501000048
:100060001501000015010000150100001501000038
:100070001501000015010000150100001501000028
:100080001501000015010000150100001501000018
:100090001501000000000000000000001501000034
:1000A00015010000150100001501000015010000F8
:1000B0000000000010B5064C2378002B07D1054B3B
:1000C000002B02D0044800E000BF0123237010BDC4
:1000D000300400200000000008040000084B10B5A8
:1000E000002B03D00749084800E000BF0748036819
:1000F000002B00D110BD064B002BFBD09847F9E731
:10010000000000003404002008040000080400007F
:1001100000000000FEE7C04670B52E4B2E4A9A4202
:1001200003D02E4B2B4A9A4204D32D4B2D4A9A4290
:1001300010D31EE02C4A294B03339B1A9B08013332
:100140009B000022234824498C58845004329A4250
:10015000FAD1EAE7254A224B03339B1A9B08013365
:100160009B0000221F4800211418216004329A428B
:10017000FAD11F4AFF211F4B8B439360FD39902317
:100180005B001D4AD1501D48C3780324A3430222BB
:100190001343C370C3780C26B34308210B43C370C9
:1001A000174B987B3025A8430500202028439873DF
:1001B000987BB04301439973997BA1430A439A7397
:1001C000104A516880230B4353600F4B98470F4BE5
:1001D0009847FEE7000000200804000030040020DB
:1001E0004C040020300400200400002034040020CF
:1001F00000ED00E0000000000070004100500041F0
:10020000004800410040004165020000210200005A
:10021000014A024B1A60704740420F000000002064
:1002200010B50C4B98470C4B802252009A608022EC
:1002300052025A60094A5A80094B196802229143B6
:1002400019601968802040010143196019680A4348
:100250001A60FEE711020000000C00401A40000086
:100260000020004270B50D4E0D4D0024AD1BAD10A9
:1002700005D0A300F35801349847A542F9D100F006
:10028000B1F8084E084D0024AD1BAD1005D0A300F9
:10029000F35801349847A542F9D170BDF00300002E
:1002A000F0030000F0030000F8030000034B10B55A
:1002B000002B02D0024800F005F810BD000000003D
:1002C000D502000010B5010000230022002000F03C
:1002D0001BF810BD70B5094B094CE41AA41009D0E5
:1002E000084AA518AD00ED182B68013C9847043D5D
:1002F000002CF9D100F080F870BDC0460404000065
:1003000008040000FFFFFF3FF8B544465F4656462D
:100310004D469B462F4BF0B41C68A4235B000500A0
:10032000E0580E00904600284BD043681F2B0DDC90
:100330005C1C002D21D102339B0044601E50002024
:100340003CBC90469946A246AB46F8BD224B002BDA
:100350003CD0C820400000E000BF002836D0A422D6
:1003600000235200A15843600160A05040328350E6
:10037000043283500124002DDDD09A00914681443F
:10038000424688214F467A50C4225200904680440B
:1003900042468739994012688A460A439446424643
:1003A00061461160842249465F4652008F50022DFB
:1003B000C1D1020055468D32FF3211680D431560E0
:1003C000B9E720004D30FF30E050AEE70120404259
:1003D000B6E7C046E0030000000000004300000054
:1003E00008000020F8B5C046F8BC08BC9E4670471F
:1003F000AD020000DD000000F8B5C046F8BC08BC46
:080400009E467047B5000000A4
:1004080040420F000000000000000000F40200203D
:100418005C030020C403002000000000000000006E
:1004280000000000000000000000000000000000C4
:10043800000000000000000000000000DC030000D5
:1004480000000000000000000000000000000000A4
:100458000000000000000000000000000000000094
:100468000000000000000000000000000000000084
:100478000000000000000000000000000000000074
:100488000000000000000000000000000000000064
:100498000000000000000000000000000000000054
:1004A8000000000000000000000000000000000044
:1004B80001000000000000000E33CDAB34126DE6E1
:1004C800ECDE05000B00000000000000000000004A
:1004D8000000000000000000000000000000000014
:1004E8000000000000000000000000000000000004
:1004F80000000000000000000000000000000000F4
:1005080000000000000000000000000000000000E3
:00000001FF
